:100000000C9472000C948B000C948B000C948B005D
:100010000C948B000C948B000C948B000C948B0034
:100020000C948B000C948B000C948B000C948B0024
:100030000C948B000C948B000C948B000C948B0014
:100040000C948B000C948B000C948B000C948B0004
:100050000C948B000C948B000C948B000C948B00F4
:100060000C948B000C948B000C948B000C948B00E4
:100070000C948B000C948B000C948B000C948B00D4
:100080000C948B000C948B000C948B000C948B00C4
:100090000C948B000C948B000C948B000C948B00B4
:1000A0000C948B000C948B000C948B000C948B00A4
:1000B0000C948B000C948B000C948B000C948B0094
:1000C0000C948B000C948B000C948B000C948B0084
:1000D0000C948B000C948B000C948B000C948B0074
:1000E0000C948B0011241FBECFEFD1E2DEBFCDBF39
:1000F00000E00CBF12E0A0E0B2E0E4E1F6E000E0D6
:100100000BBF02C007900D92A033B107D9F70E9430
:100110006A020C9408030C9400001092C50087E654
:100120008093C40088E08093C10086E08093C20081
:1001300008959091C00095FFFCCF8093C60008956C
:10014000CF93DF93EC018991811103C0DF91CF91AF
:1001500008950E949900F7CFCF93DF9300D01F92AC
:10016000CDB7DEB74AE0BE016F5F7F4F90E00E94DF
:10017000D302CE0101960E94A0000F900F900F9025
:100180000F90DF91CF910895FC0121E030E001C094
:10019000220F6A95EAF78081413019F4282B2083D9
:1001A000089520952823FBCFFC0121E030E001C019
:1001B000220F6A95EAF78081442319F0282B2083C7
:1001C000089520952823FBCFCF93DF931F92CDB7BF
:1001D000DEB78983298181E090E001C0880F6A95AC
:1001E000EAF782230F90DF91CF910895CF9380B1EA
:1001F00060E00E94E4008823D1F380EA8A95F1F759
:1002000080B160E00E94E400C1E0811101C0C0E063
:1002100080B160E00E94E4008111FACF8C2FCF9171
:100220000895CF93DF93D8E080E0C82FCC0F0E94D1
:10023000F6008C2BD150C9F7DF91CF9108958F92A2
:100240009F92BF92CF92DF92EF92FF920F931F93F4
:10025000CF93DF9300D01F921F92CDB7DEB77C0102
:100260008B01CE0101966C0185E0F60111928A9511
:10027000E9F741E060E081E290E00E94C40040E0E4
:1002800060E082E290E00E94D400FFEF29EF80E07E
:10029000F15020408040E1F700C0000041E060E004
:1002A00082E290E00E94D40090EA9A95F1F740E053
:1002B00060E081E290E00E94C400E5EDEA95F1F78C
:1002C000000080B160E00E94E400B82E81113EC0C1
:1002D0008FE391E00197F1F700C0000080B160E08A
:1002E0000E94E4008823A9F1EFE3F1E03197F1F7F0
:1002F00000C000004E01F6E08F0E911C0E9411011B
:10030000F60181936F01E815F905C1F729819B81F9
:100310008A81820F890F3C81830F3D8183131CC02A
:10032000F7012083F80190838B2D0F900F900F9091
:100330000F900F90DF91CF911F910F91FF90EF9051
:10034000DF90CF90BF909F908F900895BB24B3947F
:10035000EBCF92E0B92EE8CF83E0B82EE5CF41E0B5
:1003600064E08EE290E00E94D40085E08A95F1F787
:10037000000040E064E08EE290E00E94D4008FE84C
:1003800091E00197F1F700C00000089530E002C04D
:10039000359527954A95E2F741E020FF40E00C941F
:1003A000D400CF93C82F41E0611101C040E065E067
:1003B0008EE290E00E94D4002C2F40E065E084E3C0
:1003C00090E00E94C6012C2F41E063E08EE290E0B5
:1003D0000E94C6012C2F42E063E082E091E00E947F
:1003E000C6012C2F43E064E082E091E00E94C60148
:1003F000CF910C94AF01CF93DF93C82FD62F829566
:100400008F700E94D1016D2F8C2F8F70DF91CF9153
:100410000C94D10160E00C94FB0161E00C94FB01B1
:10042000CF93DF93EC018991811103C0DF91CF91CC
:1004300008950E940D02F7CF8DB180638DB96B9A3C
:100440009D9AE1E0F1E08081886180832FEF80E771
:1004500092E0215080409040E1F700C0000060E051
:1004600083E00E94D1018FE19EE40197F1F700C083
:10047000000060E083E00E94D10187E592E00197EF
:10048000F1F700C0000060E083E00E94D10187E541
:1004900092E00197F1F700C0000060E082E00E9466
:1004A000D10187E592E00197F1F700C0000088E2F2
:1004B0000E940A028CE00E940A0286E00E940A0260
:1004C00081E00E940A028FE39FE10197F1F700C0EB
:1004D00000000895CF93DF9300D000D000D01F928A
:1004E000CDB7DEB70E948D000E941C02BE01675F7F
:1004F0007F4FCE010A960E941F01182F81114BC019
:1005000080E092E00E94A00089850E94AC008FE00C
:1005100092E00E94A0008A850E94AC0081E00E94C7
:100520000A028FE39FE10197F1F700C0000080E02D
:1005300092E00E94100289854AE0BE016B5F7F4F06
:1005400090E00E94D302CE0105960E94100280EC3A
:100550000E940A0282E192E00E9410028A854AE02B
:10056000BE016F5F7F4F90E00E94D302CE010196E3
:100570000E94100280E00E940A028CE292E00E9437
:10058000A0009FEF27EA81E6915020408040E1F7EC
:1005900000C00000ABCF8EE192E00E94A000812F4E
:1005A0000E94AC00EACFBB274A3031F4992322F4F1
:1005B000BDE2909581959F4F0C94DF02BB27FB0114
:1005C0005527AA27880F991FAA1FA41710F0A41B4C
:1005D00083955051B9F7A05DAA3308F0A95DA193A6
:1005E000009779F7B111B1931192CB010C94F802F5
:1005F000DC01FC01672F71917723E1F7329704C08A
:100600007C916D9370836291AE17BF07C8F3089514
:04061000F894FFCF8C
:1006140054656D7065726174757265203D20004388
:100624002C2048756D6964697465203D2000444838
:10063400543131206572726F723A20000D0A000045
:00000001FF
